:020000040800F2
:1000000018080020B1020008CD210008C521000811
:10001000C9210008650E0008252400080000000022
:10002000000000000000000000000000D5210008D2
:10003000690E000800000000D1210008D921000845
:10004000CB020008CB020008CB020008CB0200085C
:10005000CB020008CB020008CB020008CB0200084C
:10006000CB020008CB020008CB020008CB0200083C
:10007000CB020008CB020008CB020008CB0200082C
:10008000CB020008CB020008CB020008CB0200081C
:10009000CB020008CB020008CB020008CB0200080C
:1000A000CB020008CB020008CB020008CB020008FC
:1000B000CB020008CB020008CB020008CB020008EC
:1000C000CB020008CB020008CB020008CB020008DC
:1000D000CB020008CB020008CB020008CB020008CC
:1000E000CB020008CB020008CB020008CB020008BC
:1000F000CB020008CB020008CB020008CB020008AC
:1001000000000000CB020008CB020008CB02000870
:100110000000000000000000CB020008CB02000835
:10012000CB020008CB020008CB020008CB0200087B
:10013000CB020008CB020008CB020008CB0200086B
:10014000CB020008CB020008CB020008CB0200085B
:10015000CB020008CB020008CB020008CB0200084B
:10016000CB020008CB0200080000000000000000E5
:10017000000000000000000000000000000000007F
:10018000CB020008CB0200080000000000000000C5
:10019000CB020008CB0200080000000000000000B5
:1001A000000000000000000000000000000000004F
:1001B000CB0200080000000000000000CB02000895
:1001C000CB02000800F002F800F062F814A696E8EE
:1001D000000CB244B344DA4501D100F059F8BAE852
:1001E0000F000FA696E83000A5EB040504EB060708
:1001F000AAEB0704A7F101074FEA15154FEA3414DB
:10020000A4F10104AC4201D300F042F813F0010F55
:1002100018BFFB1A43F0010300F001F8DBE71847B1
:1002200084310000A4310000103A24BF78C878C19E
:10023000FAD8520724BF30C830C144BF04680C60EC
:1002400070470000704700000023002400250026AE
:10025000103A28BF78C1FBD8520728BF30C148BF29
:100260000B607047662903F01D80752900F0CC8073
:10027000002070471FB503F008F800F07FFC040071
:100280000020002102F074FFE0601FBD10B510BD1A
:1002900000F074FD1146FFF7EDFF02F0C5F800F025
:1002A00092FD03B4FFF7F2FF03BC00F0D3FD0000A2
:1002B0000948804709480047FEE7FEE7FEE7FEE7FA
:1002C000FEE7FEE7FEE7FEE7FEE7FEE70448054936
:1002D000054A064B70470000DD210008C5010008F3
:1002E000180200201808002018040020180400201C
:1002F00053EA020C00F069802DE9F04B4FF0000644
:10030000002B1FBFB3FA83F503FA05F424FA05F6B0
:100310005E4012BF1643B2FA82F502FA05F4C5F147
:1003200020051EBF22FA05FC44EA0C04203556EADB
:10033000044C4FEA144418BF641C4FF000084FF0FF
:100340000009904271EB030C39D3002919BFB1FAAF
:1003500081F701FA07F6B0FA80F700FA07F6C7F15D
:1003600020071EBF20FA07FC46EA0C062037B6FB22
:10037000F4FCA7EB0507103F07F01F0BCBF120069D
:100380002CFA06F60CFA0BFB44BFB3460026202FCE
:10039000A4BF5E464FF0000B5BEA060C08BF4FF0AF
:1003A000010B19EB0B0948EB0608ABFB027C06FBC3
:1003B00002CC0BFB03CCC01B71EB0C01C1E70B465D
:1003C000024641464846BDE8F08B13B5084318BFC6
:1003D0004FF0FF300146AFF30080BDE81C4070478E
:1003E0000FB41CB5074B06AA7B44694600900598DC
:1003F00000F0ABFB0020694600F0BAFB1CBC5DF8C6
:1004000014FB0000850700002DE9F041064600249A
:1004100010687529314616A510D0AFF3008000286A
:1004200002DA404213A507E031688A0701D512A518
:1004300002E0490704D511A5012401E0AFF30080D3
:1004400000210A2206F1240709E0B0FBF2FCB0FB10
:10045000F2F302FB1C00303078541846491C002887
:10046000F3D123462A463046BDE8F04100F001B9F9
:10047000000000002D0000002B0000002000000004
:100480002DE9F0474FF0000A89460446C0F820A045
:100490002046E1688847002876D0252806D0D4E990
:1004A00001219047206A401C2062F1E7E168204664
:1004B00000268847C4F81CA005460027C4F818A0E9
:1004C0002A2D09D0284602F04BFE38B304EB8708EA
:1004D000303DC8F8185019E059F8041B204604EBC9
:1004E00087029161E1688847012F054618D1E069CC
:1004F000002820DA26F020061DE0D8F8180000EBCE
:10050000800005EB40003038C8F818002046E1684C
:100510008847054602F024FE0028EED1012F0AD0BC
:100520002E2D08D12046E16888477F1C0546022F02
:1005300046F02006C4DBA069002803DA404246F0FA
:100540000106A061F00701D026F010066C2D0AD03C
:10055000682D08D04C2D39D06A2D35D0742D35D06A
:100560007A2D33D016E0E1682F4620468847B842FE
:1005700005460AD16C2F27D04FF48060E16806430E
:1005800020468847054605E027E06C2F1AD04FF437
:10059000807006430DB3A5F14100192802D820351B
:1005A00046F400664A462946204626604E46FFF736
:1005B00059FE80B101280BD0F61D26F0070000F18E
:1005C000080965E74020E4E78020D7E70020D5E769
:1005D00006F104095CE7284661E7206ABDE8F08778
:1005E00010B5431C02E010F8011B71B18107FAD16C
:1005F0004FF0013202C88C1A8C4314EAC211F9D0B0
:10060000C01A0A0603D0C01E10BDC01A10BD0A04CD
:1006100001D0801E10BD0902FCD0401E10BD4FF05D
:10062000000200B5134694469646203922BFA0E842
:100630000C50A0E80C50B1F12001BFF4F7AF09074E
:1006400028BFA0E80C5048BF0CC05DF804EB89003F
:1006500028BF40F8042B08BF704748BF20F8022B82
:1006600011F0804F18BF00F8012B7047704770479A
:1006700070472DE9F0470D4699469246044600F131
:1006800024080168880604D5E06921F01001216082
:1006900000E00120A84201DD471B00E00027A1691E
:1006A0007A1902EB0900081AA0612078C00602D46A
:1006B0002046AFF30080002608E0D4E901211AF8B3
:1006C00006009047206A401C761C20624E45F4DBF1
:1006D0002078C0060AD52046AFF3008006E0D4E9B2
:1006E000012130209047206A401C2062381EA7F16B
:1006F0000107F4DC07E0D4E9012118F80500904770
:10070000206A401C2062281EA5F10105F3DC20466A
:10071000AFF300802078000602D50220BDE8F08704
:100720000120FBE72DE9FF4F0C461E464FF0FF3737
:100730008BB0D2E90001DDF860800A908A46C1F3EF
:100740000A5505B93D46002108464FF00000BAF1B0
:10075000000F00F4400005DA00EB80004FF4400188
:1007600001EA50004FEA9059B9F1010F00DDB94696
:100770000A9850EA4A000ED044F61050A5F2FF3510
:1007800045432F14B8F1000F1ED07542291E1EDDFF
:10079000C9F100021CE0B8F1010F4FF0000001D0D8
:1007A000302103E0F24305E02154401CB042FBDB62
:1007B00030460022002121540B99C1F80880C1E97C
:1007C00000200FB0BDE8F08FBD1B6D1CDEE74A4670
:1007D00000DA694206A800F05BFA06AB93E807006E
:1007E00003AB83E8070050460A9902F0D9F88DE878
:1007F0000700A0F500501F3800900398002D0ADD77
:1008000042F21F014A460844002303A903906846A8
:1008100002F042FB09E0A0F500504A461F380023D1
:1008200003A90390684602F04CFB8DE80700000422
:10083000000C03D04FF0FF30410800E01046B8F143
:10084000000F03D00022009215461EE0751E05D44D
:1008500000F098F9303262556D1EF9D5B346012289
:10086000084302D000227F1C04E02078302801D108
:1008700000227F1E002A099784D01DE0112D07DA7F
:1008800000F080F9303262556D1C50EA0102F5D15A
:10089000084302D00098C8B10EE00021681E05E0B0
:1008A000235C625C63542254401E491C8142F7DB86
:1008B000AB46A81B401E0990002004F80B000B98C3
:1008C000099AC0F80880C0E9002B7AE711264FF09A
:1008D000000857E72DE9F04F88460446D21D22F064
:1008E000070191B0D1E90001CDE90A0102F020FC35
:1008F00002460B98C00F01D02D2007E02068810729
:1009000001D52B2002E0202101EAC000032A099032
:1009100001D0072A05DB03464146204600F078F95E
:100920000BE12078800601D5E06900E00620B8F1EF
:10093000650F814606D0B8F1660F18D0B8F1670F81
:1009400070D131E00020B9F1110F009001DB1123CB
:1009500001E009F101030AAA01A90CA8FFF7E2FED0
:10096000DDE90C70002609F10105834647E001200E
:100970004B4600904FF000470AAA01A90CA8FFF7C8
:10098000D1FEDDE90DB00C995D46002610B909F1E4
:1009900001000D18B9EB050003D4C0F1FF3609F1D1
:1009A0000105A5EB09002BE0B9F1010F01DA4FF0C9
:1009B00001090020B9F1110F0090484601DD112313
:1009C00000E003460AAA01A90CA8FFF7ABFEDDE987
:1009D0000C704D4600268346207800070AD4AB45AC
:1009E00000DA5D4601A8012D04DD411911F8011C52
:1009F000302907D04F4502DA17F1040F04DA01203D
:100A000082460FE06D1EEEE7002F02DCED1B3E4438
:100A100003E0781CA84200DD7D1CB81B00F1010A30
:100A20004FF000472078000703D4AA4501DB4FF0C0
:100A3000FF3A0021B7F1004F0DF143088DF8431044
:100A400024D002202B23002F01DA7F422D230A21FC
:100A5000021EA0F1010000DC5FB197FBF1FC97FBE7
:100A6000F1F201FB1C7C17460CF1300C08F801CDAB
:100A7000EEE7A8F1010003702188090501D54521A1
:100A800000E06521A0F1010800F8011C09980FA9F8
:100A9000A1EB0807FF1D00B10120411901EBEA702D
:100AA000A1693844081A401EA0612078C00602D40B
:100AB0002046AFF30080099828B1D4E9012190477E
:100AC000206A401C20622078C00622D52046AFF361
:100AD00000801EE0002E04DBB34502DD01A8805D2E
:100AE00000E03020D4E901219047206A401C2062B8
:100AF000761CAAF101005FEA000A0AD100F03EF874
:100B0000C0680168405CD4E901219047206A401C1C
:100B10002062281EA5F10105DCDC07E0D4E90121F3
:100B200018F8010B9047206A401C2062381EA7F17C
:100B30000107F3DC2046AFF30080032011B041E64B
:100B400001694A1C02610878704700B58FB0CDE991
:100B500001310021059105497944CDE90310114681
:100B60006846FFF78DFC0FB000BD0000E5FFFFFFFA
:100B70000A6802F8010B0A607047000000487047DD
:100B80003000002030B5B0F10A0271F100034FEAE5
:100B9000900E4EEA817EB0EB0E0061EB91014FEAC0
:100BA000101E4EEA017E10EB0E0041EB11114FEAD0
:100BB000102E4EEA016E10EB0E0041EB11214FEAB0
:100BC000104E4EEA014E10EB0E0041EB1141401861
:100BD00041F100014FEAD00040EA41704FEAD101F3
:100BE0004FEA810444EA907410EB800544EB010461
:100BF0006D1944EB0404521BA3414FF0000348BF9E
:100C00000A3200D530BD401C41F1000130BD00006A
:100C10002DE9F0411F46044603260168072A01F426
:100C2000006004DB08B116A505E016A503E008B1D5
:100C300015A500E015A521F010002060A069C01ED8
:100C4000A0610FB1401EA0612046AFF300804FB1FC
:100C5000D4E9012138469047206A401C2062C01C1C
:100C6000206206E0206AFAE7D4E9012115F8010BB9
:100C70009047761EF8D22046AFF30080BDE8F081A1
:100C80004E414E006E616E00494E4600696E660030
:100C90002DE9F047814616468AB0354878440DC89C
:100CA0008DE80D0032487844801C03AC0DC884E800
:100CB0000D0041F69B300844372190FBF1F290FB88
:100CC000F1F5A5F1800501FB12041B3C02D564423D
:100CD000012000E00020DFF898A080460027FA44B9
:100CE000AAF1BE0A0EE0E0070AD03246684607EBDA
:100CF000470101230AEB810102F0E3F88DE80700C8
:100D000064107F1C002CEED1194F7F44AE3F19E0D8
:100D1000E80715D007EB04100DF1180A90E80E0053
:100D20008AE80E00C068F04201D198190890324656
:100D3000012306A903A802F0C4F803AB83E8070067
:100D40006D10641C002DE3D14FF00103324669465B
:100D5000B8F1000F03A802D002F09EF801E002F003
:100D6000B0F8C9E90001C9F808200AB0BDE8F08769
:100D70008426000000487047100000207546FFF7E9
:100D8000F9FFAE4605006946534620F00700854648
:100D900018B020B5FFF79AFABDE820404FF00006E2
:100DA0004FF000074FF000084FF0000BAC46ACE8E6
:100DB000C009ACE8C009ACE8C009ACE8C00921F042
:100DC00007018D46704710B50446AFF300802046FA
:100DD000BDE81040FFF765BA30B44FF0013C50F861
:100DE000042B51F8043BCCFA52F4D51A20D1FCB9AB
:100DF00050F8042B51F8043BCCFA52F4D51A17D111
:100E0000B4B950F8042B51F8043BCCFA52F4D51A7B
:100E10000ED16CB950F8042B51F8043BCCFA52F4C3
:100E2000D51A05D1002CDAD030BC4FF00000704745
:100E300029BAB1FA81F111F01801D1F120008440F2
:100E4000F2D1CA40CB4012F0FF0213F0FF0330BCD6
:100E5000D01A704701491820ABBEFEE726000200F9
:100E600070470000FEE700007047000070B581B0D9
:100E70000022009290F83C20012A03D1022108466A
:100E800001B070BD0E6801220A2E80F83C2009D303
:100E9000B2B25200D0F800E012FA86F21E3A0EF119
:100EA0000C0305E0D0F800E006EB46020EF110035B
:100EB0004FF0070C1D680CFA02F4A5431D608D6805
:100EC0001C6805FA02F222431A60496806290FD805
:100ED00001EB81014A1F71461F2351F8345F934093
:100EE00025EA03030B60B3B203FA02F214E000BF79
:100EF00001EB81030C29B2B204D8714651F8304F8E
:100F0000233B03E0714651F82C4F413B1F259D4088
:100F100024EA05059A400D600B6842F2043CC4F2D5
:100F2000010C1A43ACF541739E450A603BD1122E69
:100F300006D1DCF8001041F48001CCF8001032E05A
:100F400026F0010110292ED1DCF80010102E41F4FA
:100F50000001CCF8001026D140F20801C2F20001D5
:100F600009684DF68362C4F21B32A1FB0212910C98
:100F700001EB8101490000910099A1B1009901396B
:100F80000091009979B1009901390091009951B10E
:100F9000009901390091009929B100990139009116
:100FA00000990029EAD1002180F83C10084601B0E0
:100FB00070BD00000068C06C70470000002804BFCE
:100FC0000120704710B50446006C00283ED0206C0C
:100FD000C00645D4206C41F202118843023042F22F
:100FE00004312064C4F20101086820F44030086034
:100FF0000A6894E809101A43D4F810E00A604168BE
:10100000012321F4807141604168C0F6007341EA18
:101010000E214160416821F040714160416841EA20
:101020000C014160816821F400618160E16882689F
:1010300011438160A16A8268994222F070628260E5
:10104000826813D122F0405119E000BF204600F021
:1010500065F80020606484F83C00206CC006B9D5B7
:101060000120002184F83C1010BD00BF11438160B5
:10107000816821F040518160E16A8268114381609A
:10108000816821F0020181608168227E94F820301D
:1010900041EA42018160416883B141F400614160ED
:1010A00041684EF2000221F460414160616ACFF66E
:1010B000FF72436802EB4131194301E021F4006102
:1010C0004160C16A40F2000C21F47001C162E26922
:1010D0006169CFF6F07CC36A0CEB02521A43C2621C
:1010E000826822F40072826094F83020836843EAB8
:1010F00042228260826822F480628260826842EAD0
:101100008121816000206064216C012262F3010171
:101110002164002184F83C1010BD0000006842F2F8
:101120000001C4F20101884218BF704781B000205D
:10113000009043F64400C4F20200016841F480715B
:101140000160006800F480700090009801B0704762
:1011500070B5044600680D468268520544BF806839
:101160005FEAC05038D400F0E5F921680A689207B8
:1011700049D40646681C3CD0DDB90868800721D5F3
:10118000086880073FD4086880071BD50868800777
:1011900039D40868800715D50868800733D40868F3
:1011A00080070FD508688007E7D52CE0086880071E
:1011B00029D400F0BFF9801B2168A842F6D908683D
:1011C0008007F3D4206C40F004002064002084F8F1
:1011D0003C00032070BD00BF206C40F02000206464
:1011E000002084F83C00012070BD00BF0868800723
:1011F00009D40868800706D4086880075CBF0868BF
:101200005FEA8070F2D56FF012000860206C40F445
:1012100000702064886810F0405F01D0002070BD2D
:10122000207E0028FAD1C86A10F4700F02D08868B6
:101230004005F3D4206C20F480702064206CC0043E
:10124000ECD4206C40F001002064002070BD000050
:1012500010B581B00021009190F83C10012903D114
:10126000022001B010BD00BF0468012180F83C10CD
:10127000214651F8083FDB0729D10B684DF6836200
:1012800043F001030B6040F20803C2F200031B6845
:10129000C4F21B32A3FB02239A0C02EB420200921F
:1012A000009AA2B1009A013A0092009A7AB1009A8B
:1012B000013A0092009A52B1009A013A0092009AC3
:1012C0002AB1009A013A0092009A002AEAD10A68EB
:1012D000036CD2070CD143F01001016400F144010A
:1012E00001200A6810430860002001B010BD00BF53
:1012F00040F2017223EA020202F58072026462681F
:10130000520504D5026C012363F30D320264026CB2
:101310004FF0000C0023D20444BF426C22F00603BD
:1013200042F2000E436480F83CC06FF02200C4F229
:10133000010E2060DEF80403C00609D074450BD10D
:10134000DEF8080010F0405F06D14FF08040C8E79B
:10135000086810F0405FF8D0002001B010BD000018
:10136000B0B5044600F0E6F8054640F20000C2F2CF
:1013700000000078611C18BF044400BF00F0DAF8D8
:10138000401BA042FAD3B0BD2DE9F04F82B000F16E
:101390003E4707F1FF77860546EA972741F60006A4
:1013A000C4F20206072243F6004EB04208BF0622EE
:1013B000C4F2010E062F38BF3A46002600274FF030
:1013C0000008009209E000BF08F101080237B8F1F7
:1013D000100F06F1040600F0A3800D68012202FA46
:1013E00008F415EA0409EFD0D1F804B003220BF099
:1013F000030CACF10105BA40012D6FEA020A0FD8C7
:101400008268CD6802EA0A02BD402A4382604268CF
:10141000A243CBF3001404FA08F42243426005E02F
:10142000BCF1030F02D14FF0030C1EE0C2688C68C0
:1014300002EA0A02BC402243BCF1020FC26014D18E
:101440006FF0030202EA58020244D2F820C006F00C
:101450001C040F230D69A3402CEA0303A5402B4372
:101460001362D1F804B00BF0030C02680CFA07F316
:1014700002EA0A021A431BF4403F0260A4D0002291
:1014800043F644030192C4F202031A684FF6084C73
:1014900042F480421A601A68CFF6FF7C02F4804260
:1014A0000192019A28F00302724452F80C3006F0BF
:1014B0000C050F24AC40A343009C04FA05F52B4314
:1014C00042F80C30DEF808204B6842EA090543F682
:1014D0000C4CDC0258BF22EA0905CEF80850C4F2D1
:1014E000010CDCF800209C0242EA090558BF22EA00
:1014F0000905CCF80050DEF804209C0342EA0905F7
:1015000058BF22EA0905CEF80450DEF80020DB03BC
:1015100042EA090558BF22EA0905CEF8005053E710
:1015200002B0BDE8F08F0000002A08BF0904816105
:101530007047000040F21420C2F2000000687047BB
:1015400040F2000040F21421C2F20000C2F2000199
:1015500000780A68104408607047000080B543F6C0
:101560000040C4F20200016841F4007101600168AA
:1015700041F480610160016841F4807101600320E1
:1015800000F074F80F2000F005F800F027F80020B4
:1015900080BD000070B540F20006C2F2000640F2C5
:1015A00008013278C2F200014FF47A730968B3FB84
:1015B000F2F20446B1FBF2F1084600F057FB0F2CA3
:1015C0004FF0010508D838B94FF0FF30214600220E
:1015D000002500F01FF87460284670BD82B000201E
:1015E00043F640010190C4F202014A6842F480428D
:1015F0004A604A6802F480420192019A00900868A9
:1016000040F080500860086800F08050009000981A
:1016100002B0704710B54EF60C5CCEF2000CDCF850
:101620000030C3F3022E8EF00704042C28BF0424DC
:10163000BEF103034FF0FF3E0EFA04F438BF00235F
:10164000A14399400EFA03F39A43114300F00F02AD
:1016500000F160430901043A03F564436244002841
:1016600048BF02F10C03197010BD00004EF60C517A
:10167000CEF200010A684FF6FF031A4060F30A2217
:1016800042F0806040F0FD7008607047002804BFA1
:10169000012070472DE9F04143F60808C4F2020822
:1016A0000446D8F8F8030D4600F00700884207D238
:1016B00088F8F853D8F8F80300F00700A84277D16B
:1016C0002068810717D5410705D5D8F8001041F4E7
:1016D000E051C8F80010010705D5D8F8001041F412
:1016E0006041C8F80010D8F80010A26821F0F0019D
:1016F0001143C8F80010C00740D1D8F8F80300F033
:101700000700A84207D988F8F853D8F8F80300F082
:101710000700A8424CD12068410707D5D8F800102F
:10172000E26821F4E0511143C8F80010000708D521
:10173000D8F80000216920F4604040EAC100C8F8F0
:10174000000000F07DF8D8F8001043F24232C1F3F7
:101750000311C0F60002515C40F2080220FA01F1C8
:1017600040F20400C2F200000068C2F20002116000
:10177000FFF710FF0020BDE8F08100BF6068811E08
:10178000022907D258F8081C89015CBF0120BDE876
:10179000F08111E0012807D158F8081C89035CBFCB
:1017A0000120BDE8F08107E058F8081C890703D440
:1017B0000120BDE8F08100BFD8F8001021F003013E
:1017C0000843C8F80000FFF7B5FE064641F2883727
:1017D000D8F80000616800F00C00B0EB810F8CD0ED
:1017E000FFF7A8FE801BB842F2D90320BDE8F081C4
:1017F00040F2080043F60801C2F20000C4F2020100
:101800000068096843F25232C1F38221C0F6000237
:10181000515CC8407047000040F2080043F60801E0
:10182000C2F20000C4F202010068096843F25232B9
:10183000C1F34231C0F60002515CC840704700005D
:1018400010B543F60404C4F20204606800F00C0012
:1018500008280BD0042819BF42F20040C0F2F4005F
:1018600047F64000C0F27D1010BD00BF206821681F
:101870002368490247F64001C0F27D1100F03F02A3
:10188000C3F388105CBF42F20041C0F2F401A1FB37
:1018900000010023FEF72CFD21680222C1F3014163
:1018A00002EB4101B0FBF1F010BD0000002804BFC5
:1018B000012070472DE9F04182B00446007843F6DC
:1018C0000006C007C4F202060CD0B06800F00C009D
:1018D000042840F081803068800303D560680028C8
:1018E00000F07081207880071BD5B06810F00C0FD5
:1018F00009D0B06800F00C00082840F087807068BC
:10190000400200F183803068800703D5E068012839
:1019100040F058813068216920F0F80040EAC100A9
:1019200030602078000713D4207840072AD4A569B6
:10193000002D00F04281B06800F00C00082840F053
:10194000A180012D40F01081012002B0BDE8F0819E
:101950006069002840F20000C4F2472000F07E8059
:101960000121C0F8801EFFF7E5FD0546706F800776
:10197000DAD4FFF7DFFD401B0228F7D9032002B0BD
:10198000BDE8F081306C5FEAC0080AD40020019005
:10199000306C40F080503064306C00F0805001902A
:1019A000019847F20007C4F200073868C00547D421
:1019B000386840F480703860FFF7BCFD054600BF12
:1019C0003868C0053CD4FFF7B5FD401B0228F7D9A5
:1019D000032002B0BDE8F081B06800F00C000828D8
:1019E00003D1706840023FF576AF6068B0F5803F84
:1019F00007D0B0F5A02F40F09B80306840F48020E5
:101A00003060306840F4803030609CE0E06800284E
:101A10005CD00020C4F2472001210160FFF78AFD5D
:101A2000054600BF306880073FF574AFFFF782FDC1
:101A3000401B0228F6D9032002B0BDE8F08100BFA8
:101A4000A068012805D0052854D1306F40F004006B
:101A50003067306F40F00100306756E00021C0F879
:101A6000801EFFF767FD0546706F80077FF55CAF4E
:101A7000FFF760FD401B0228F6D9032002B0BDE845
:101A8000F08100BF0027C4F2472700203866FFF727
:101A900051FD022D05460DD13068800140F1968040
:101AA000FFF748FD401B02284FF00300F4D902B0B5
:101AB000BDE8F0813068800140F17F80FFF73AFD9A
:101AC000401B02284FF00300F4D9F0E70020C4F2D5
:101AD000472000210160FFF72DFD05463068800793
:101AE0007FF51FAFFFF726FD401B02284FF00300D4
:101AF000F4D9DCE7316F002821F001013167316F43
:101B000021F00401316700F08580FFF713FD0546E1
:101B100041F28837306F800700F18E80FFF70AFDB1
:101B2000401BB842F6D9032002B0BDE8F08100BFE7
:101B30003168002821F480313160316821F480213E
:101B4000316000F08380FFF7F5FC054630688003C4
:101B50003FF5C8AEFFF7EEFC401B6428F6D9032022
:101B600002B0BDE8F08100BF7068E16900F4800256
:101B70008A4227D1216A00F03F028A4222D147F6E9
:101B8000C071626A0140B1EB821F1BD1A16A4FF69E
:101B9000FF73C903994300F44032A1F580318A42B2
:101BA00010D1E16A00F07062B2EB016F0AD1216BD3
:101BB00000F0E040B0EB017F04D1002002B0BDE8AE
:101BC000F08100BF012002B0BDE8F08104F11C05E6
:101BD0002FCD246B084340EA8210D9034FF6FF72E1
:101BE0009143A1F5803140EA0560084340EA047062
:101BF000706001203866FFF79DFC04463068800164
:101C0000DBD4FFF797FC001B02284FF00300F5D947
:101C10004DE700BFFFF78EFC054641F2883700BF55
:101C2000306F800708D5FFF785FC401BB8424FF0A6
:101C30000300F5D93BE700BFB8F1000F3FF577AEE1
:101C4000306C20F08050306471E600BFFFF772FC0A
:101C5000054600BF306880037FF544AEFFF76AFC9D
:101C6000401B64284FF00300F4D920E7411E0020F8
:101C7000B0EB116F1CBF012070474EF21002CEF284
:101C8000000251604EF62351CEF20001F0230B709A
:101C9000072190601160704790F83C20012A4FF0B6
:101CA000020254D010B580F83D200268D2F804E05A
:101CB000D2F808C00C682EF07003234341F2FF7481
:101CC000C4F20004A24253600EDC40F2FF73C4F27F
:101CD00000039A4216DCB2F1804F2BD040F2004351
:101CE000C4F2000324E000BF40F2FF33C4F201035A
:101CF0009A4213DC41F60003C4F200039A4219D061
:101D0000002313E040F60003C4F200039A4211D00E
:101D100040F60043C4F200030AE000BF44F20003AF
:101D2000C4F201039A4205D040F20043C4F2010319
:101D30009A4204D149682CF0800319439160012133
:101D4000002280F83D1080F83C20BDE8104010468D
:101D500070470000002804BF0120704710B50446FA
:101D600090F83D0028B9002084F83C00204600F09F
:101D70001FF8022084F83D002068211D00F038FA89
:101D8000012084F8460084F83E0084F83F0084F87F
:101D9000400084F8410084F8420084F8430084F84D
:101DA000440084F8450084F83D00002010BD000088
:101DB0000068B0F1804F18BF704781B000200090DC
:101DC00043F64000C4F20200016841F001010160E5
:101DD000006800F001000090009801B0704700001A
:101DE00090F83C20012A4FF0020200F0C58080B537
:101DF00080F83D20D0F800C04FF67772DCF808304C
:101E000023EA0202CCF808200B684F2B28DC1F2B9A
:101E100044DD202B45D0302B43D0402B40F0AE800A
:101E2000D1F804E0C968DCF82030DCF8202022F08A
:101E30000102CCF82020DCF8182022F0F00242EA5F
:101E4000011123F00A0242EA0E02CCF81810CCF875
:101E50002020DCF8081041F0470121F0300180E03B
:101E60006F2B27DDB3F5005F48D0B3F5805F7AD0E4
:101E7000702B40F08380D1E901E3C968DCF80820C9
:101E800043EA0E0322F47F4243EA01211143CCF8D6
:101E90000810DCF8081041F0770162E00BB1102B5C
:101EA0006CD1DCF8081021F07001194341F00701F2
:101EB00057E000BF502B35D0602B5FD1D1F804E044
:101EC000C968DCF82030DCF8202022F01002CCF8C1
:101ED0002020DCF8182022F4704242EA013123F07D
:101EE000A00242EA0E12CCF81810CCF82020DCF840
:101EF000081041F0670121F0100132E0D1E901E35F
:101F0000C968DCF8082043EA0E0322F47F4243EA62
:101F100001211143CCF80810DCF8081041F480418D
:101F20001FE000BFD1F804E0C968DCF82030DCF81D
:101F3000202022F00102CCF82020DCF8182022F02A
:101F4000F00242EA011123F00A0242EA0E02CCF842
:101F50001810CCF82020DCF8081041F0570121F0CF
:101F60002001CCF808100022012180F83D1000214A
:101F700080F83C10BDE88040104670470122F3E72E
:101F8000002804BF0120704710B5044690F84100B6
:101F900028B9002084F84000204600F021F82420D1
:101FA00084F841002068C16821F40051C1602046D6
:101FB00000F0C0F92068016921F490410161416994
:101FC00021F02A014161C16841F40051C160002043
:101FD0002021606484F8411084F84210606310BDD1
:101FE000016844F20040C4F20000814218BF70470B
:101FF00080B586B0002143F630020191C4F202029E
:10200000136900F5DE3043F400331361136903F400
:1020100000330193019B0191136843F001031360A6
:10202000126802F001020192019A0C22019202222E
:10203000CDE90221032104910721059101A9FFF7B0
:10204000A3F906B0BDE88040704700002DE9F041DB
:10205000044690F8410020281CBF0220BDE8F08112
:102060000D4600294FF0010000F0AA801646002A14
:1020700008BFBDE8F081002060642120984684F804
:102080004100FFF757FAA684E684A1680646B1F539
:10209000805F02D12069002862D02F460025E08CA5
:1020A000002861D018F1010018D0B8F1000F37D125
:1020B000216808E017F8010B4860E08C0138E084E3
:1020C000E08C002851D00868000673D5002FF1D1AC
:1020D00035F8020B00276FF35F20EDE7216802E07F
:1020E0000868000609D40868000606D408680006D7
:1020F0005CBF08685FEA0060F2D51FB117F8010BFA
:1021000005E000BF35F8020B00276FF35F20486041
:10211000E08C0138E084E08C0028E4D125E000BFA9
:10212000216800BF0868000608D4FFF703FA801B87
:10213000404541D82168C868F4E700BF17B117F8D7
:10214000010B04E035F8020B00276FF35F204860B5
:10215000E08C0138E084E08C0028E3D105E000BF8A
:102160000027E08C00289DD12168086840061FD414
:10217000B8F1000F1ED018F101000FD10868400619
:1021800016D40868400613D40868400610D40868BE
:1021900040064FF00000F1D50FE000BFFFF7CAF98D
:1021A000801B404508D82068C16800684006F5D506
:1021B000002002E0FFF7BEF90320202184F841103F
:1021C000BDE8F081FEE70000FEE70000FEE700004A
:1021D0007047000070470000FFF7B2B94EF6885014
:1021E000CEF20000016841F4700101607047000008
:1021F000B0B540F6FF3E0568C4F2000E40F2004C58
:102200007045C4F2010C27DCB0F1804F31D040F2B0
:102210000043C4F2000398422BD040F60003C4F2FE
:102220000003984225D041F6FF73C4F200039842A0
:102230002ADC70453CDCB0F1804F5FD040F20043B7
:10224000C4F20003984259D040F60003C4F20003E0
:10225000984253D057E000BF40F60043C4F2000359
:10226000984206D0604504D00023C4F2010398428E
:10227000D9D14B6825F0700243EA020541F6FF739D
:10228000C4F200039842D4DD43F6FF73C4F20103A5
:10229000984221DC42F20003C4F2000398422DD0A0
:1022A0000023C4F20103984228D0604526D02AE0DA
:1022B00040F60043C4F2000398421FD041F60003E9
:1022C000C4F20003984219D041F60043C4F200035F
:1022D000984213D017E000BF44F20003C4F2010398
:1022E00098420BD044F60003C4F20103984205D093
:1022F00044F20043C4F20103984204D1CB6825F4B0
:10230000407243EA02050A688C684B69C46240F473
:1023100080648262644504BF09690163026825F034
:10232000800142F00402194302600122426101600F
:10233000B0BD000010B504460068D4E902C22369AC
:10234000016921F4405111430161626943EA0C01C2
:10235000E3691143C268194349F20C639A4311437C
:10236000C1604169A26921F4407141F20043114307
:1023700040F48062C4F201039A42416102D1FFF746
:102380004BFA01E0FFF734FAE16963681922B1F50D
:10239000004FA0FB020123D15A00DB0FFDF7A8FF7D
:1023A00048F21F51C5F2EB11A0FB01235A094FF669
:1023B0009C73C0F6FF7303F1805302FB03003223CA
:1023C00003EBC000A0FB01014FF4F87000EA11100C
:1023D00000EB0210C1F3421108442168886010BD6F
:1023E0009A009B0FFDF784FF48F21F51C5F2EB11D5
:1023F000A0FB01235A094FF69C73C0F6FF7302FB42
:102400000300322303EB0010A0FB0101F02000EADF
:10241000511000EB0210C1F3431108442168886099
:1024200010BD0000FEE70000A0B043F6300540F20A
:10243000000AC4F20205C4F2020AFFF78FF813ACD7
:10244000201D3021FEF7EBF800261296CDE910662C
:10245000CDE90E660D96286940F080502861286904
:1024600000F080500D900D9847F200000D96CFF6C9
:10247000FE705AF8001041F440414AF800105AF832
:10248000000000F440400D900D98022013900120B0
:1024900016901020179020461996FFF707FA18B1EA
:1024A00072B600BFFEE700BF0F20CDE90E060EA8F2
:1024B0000021CDE910661296FFF7E8F810B172B668
:1024C000FEE700BF002417940E942868E02140F036
:1024D000010028602868002200F001000E900E988C
:1024E0005046E025FFF720F81395012513A9504623
:1024F000CDE914541694FEF747FF40F2D8000122AC
:10250000AAF56041C2F20000C0F60072169405768A
:1025100080F82040C0E90A24C56180F83040C0E955
:102520000014C0E90244C0E90445FEF747FD18B1B4
:1025300072B600BFFEE700BF1020CDE9130540F2E0
:10254000D800C2F2000013A91594FEF78FFC18B151
:1025500072B600BFFEE700BF40F220100021C2F2B9
:1025600000004FF080420F234FF6FF771691CDE920
:102570001411CDE90E11C0E90023C0E90217016171
:102580008161FFF7E7FB18B172B600BFFEE700BF3D
:102590004FF48050139040F22010C2F2000013A9B3
:1025A000FFF71EFC10B172B6FEE700BF40F220102C
:1025B000C2F200000EA9FFF76FFB18B172B600BFA0
:1025C000FEE700BF40F2681044F20041C2F2000092
:1025D000C4F200014FF0000B0C234FF4E13280E80D
:1025E0000608C0E903BBC0E9053BC0F81CB0FFF713
:1025F000C7FC18B172B600BFFEE700BF40F270081A
:1026000040F2D805C2F200089FEDE1AA9FEDE18AF1
:102610009FEDE19ADFEDE1AA40F2B016C2F20005AB
:10262000B1EE04DA08F14009F2EE048AF7EE009AFE
:10263000F0EE00DAC2F200064EE000BFD8F8280043
:1026400000F0B2FD0746D8F82C000C4600F0ACFDB7
:1026500041EC1C0BD8F8300000F0A6FD41EC1E0B3D
:10266000D8F8340000F0A0FD41EC1F0BD8F818009A
:1026700000F09AFD41EC1B0BD8F83C0000F094FDF3
:1026800041EC100B98F80100D8F81C103A46CDE93F
:102690000A0143F25A313046C0F6000123468DED5F
:1026A00000CB8DED02EB8DED04FB8DED06BB8DEDCA
:1026B000080BFDF795FE3046FDF792FF82B240F21F
:1026C0006810C2F2000031464FF0FF33FFF7BEFC46
:1026D0004FF47A70FEF744FE2846FEF7B9FD28460F
:1026E0004FF0FF31FEF734FD2846FEF763FC00EEA5
:1026F000100A9FEDA41AB8EE400A20EE010A9FEDE1
:10270000A21AC8F8200080EE010A9FEDA01AD8F89E
:102710000800A0F13301312930EE011A81EE0A1AC6
:1027200088ED090AB3EE090A31EE000AB0EE4D1A3F
:1027300088ED0A0A0CD3A0F197013129B0EE681A8E
:1027400006D3A0F1FB013029B2EE0E1A04D800BF67
:1027500030EE010A88ED0A0A98F80010B4EE480A33
:1027600009EB810282ED000A98ED101A98ED112A0A
:1027700098ED123A98ED134A31EE025A35EE035AAB
:1027800098ED146A35EE045A98ED157A35EE065A2E
:10279000D8ED160A35EE075AD8ED171A35EE205A3D
:1027A000D8ED182A35EE215AD8ED193A35EE225ACD
:1027B00035EE235A85EE285A0222F1EE10FAB8BF00
:1027C0000122B4EE490AF1EE10FAB8BF002201313D
:1027D000CBB2092B40F20C03C2F2000300F101005E
:1027E00031EE451A32EE452A21EE011A22EE022A76
:1027F00032EE011A33EE452A22EE022A32EE011A97
:1028000034EE452A22EE022A32EE011A36EE452A2D
:1028100022EE022A32EE011A37EE452A22EE022A71
:1028200032EE011A30EEC52A22EE022A32EE011AE9
:1028300031EEC52A22EE022A32EE011A32EEC52A04
:1028400022EE022A32EE011A33EEC52A22EE022AC5
:1028500032EE011A81EE282A98ED011A88BF002174
:1028600030EE411AB5EE401AB1EE413AF1EE10FAEF
:10287000B8BFB0EE431A93ED003A88F80010D8F8CC
:102880001010B4EE431A0131F1EE10FA88ED0C5A33
:1028900088ED0D2A88F80220C8F80800C8F8101042
:1028A00088ED0B1A0BDDD8F80C20D8F81430013263
:1028B000C8F80C205A1CC8F8142088ED010A78B119
:1028C00098ED030A02EE100AB8EE400AB8EE422A6A
:1028D00080EE020A39EEC00A20EE2A0A88ED0E0ABE
:1028E000642911D398ED050A02EE101AB8EE400AD9
:1028F000B8EE422A80EE020AC8E904BB39EEC00AEB
:1029000020EE2A0A88ED060A98ED030A02EE100A64
:10291000B8EE400AB8EE422A80EE020AB4EE6D1A12
:10292000F1EE10FA20EE2A0A88ED0F0A02DA88F892
:1029300001B011E0B4EE4D1AF1EE10FA04DA012004
:1029400088F8010008E000BFD8F81C00022101301F
:1029500088F80110C8F81C005046E0210022FEF75C
:10296000E3FD98F8010002283FF668AE43F23C31DF
:10297000C0F6000131F8101050460122FEF7D4FDD8
:102980005CE600BF3333534000F07F455C8F42BFAD
:102990000AD7233B00004842000034420000C842EE
:1029A0005FEA400C08BF91F0000F4FEA8C234FEA1A
:1029B000C12243EA51514FEA1C5018BF00F5F040C4
:1029C0004FEA300018BF41F000415FEA6C5C00F054
:1029D0002980BCF1FF3F08BF40F080407047130CD6
:1029E00006BF12044FF0100C4FF0000C130E04BF82
:1029F00012020CF1080C130F04BF12010CF1040CAD
:102A0000930F04BF92000CF1020CD30F04BF5200CD
:102A10000CF1010C11464FF00002A0F11F00A0EBD9
:102A20000C00704711F0004F08BF704731F00041B3
:102A30003FF4D5AF0B0C06BF09044FF0100C4FF05C
:102A4000000C0B0E04BF09020CF1080C0B0F04BFA5
:102A500009010CF1040C8B0F04BF89000CF1020C6E
:102A6000CB0F04BF49000CF1010CCCF1200322FA7A
:102A700003F341EA030102FA0CF2A0EB0C0000F1AF
:102A80000100704723F07F4720F07F4C80EA03006D
:102A900000F00040ACEB070303F57C5303F1FF03A8
:102AA0002DE9804909B44FEA144324EA03484FEA68
:102AB000154B25EA0B4E0FF2042606EB13273E7842
:102AC00003FB0667C7F5000707FB06F64FEAD64685
:102AD00006F102064FEA543707FB066CCCF1005CA6
:102AE0004FEA1C472CEA074C0CFB06F507FB06F4E3
:102AF00004EB15464FEA961649085FEA320234BFE6
:102B000000204FF000404FEAD13706FB07FC4FEAA8
:102B10001C4C0CFB0BF7D21B03FB0CF761EB070102
:102B20000CFB0EF7B0EB074072EB17420CFB08F7FB
:102B300034BFA2EB0742B2EB074261EB17414FEA09
:102B40000C444FEA910706FB07FC4FEA1C4C0CFBB8
:102B50000BF7B0EBC74072EB573203FB0CF734BFF7
:102B6000A2EBC742B2EBC74261EB57310CFB0EF749
:102B7000B0EBC70072EB57720CFB08F734BFA2EB47
:102B8000C702B2EBC70261EB57714FEA816141EABC
:102B900092114FEA826242EA90124FEA806004EB9F
:102BA000CC04039F4FEAD13706FB07FC4FEA1C4CCD
:102BB0000CFB0BF7D21B03FB0CF761EB07010CFBC3
:102BC0000EF7B0EB074072EB17420CFB08F734BF6F
:102BD000A2EB0742B2EB074261EB17414FEA8C557B
:102BE00004EB9C244FEA910706FB07FC4FEA1C4CC0
:102BF0000CFB0BF7B0EBC74072EB573203FB0CF743
:102C000034BFA2EBC742B2EBC74261EB57310CFBBA
:102C10000EF7B0EBC70072EB57720CFB08F734BF2E
:102C2000A2EBC702B2EBC70261EB57714FEA8161B9
:102C300041EA92114FEA826242EA90124FEA8060C2
:102C400015EB4C2544F100044FEAD13706FB07FC95
:102C50004FEA1C4C0CFB0BF7D21B03FB0CF761EB90
:102C600007010CFB0EF7B0EB074072EB17420CFBB1
:102C700008F734BFA2EB0742B2EB074261EB174102
:102C80004FEA813141EA92414FEA823242EA904270
:102C90004FEA80304FEA0C7615EB1C1544F1000426
:102CA00048EA03434EEA0B484FF0000EB2EB080C23
:102CB00071EB030724BF624639464EEB0E0E4FF010
:102CC000000B0018524149414BEB0B0BB2EB080CC7
:102CD00071EB03077BF1000B24BF624639464EEBD4
:102CE0000E0E4FF0000B0018524149414BEB0B0BFD
:102CF000B2EB080C71EB03077BF1000B24BF6246BB
:102D000039464EEB0E0E51EA020718BF46F0010697
:102D100016EB0E7655F1000254F1000103D5BDE823
:102D20008901BDE80088BDE88901BDE80048B61901
:102D3000524141EB0101A3F10103704780807F7E86
:102D40007D7C7B7A79787776767574737271717021
:102D50006F6E6E6D6C6C6B6A6A69686867666665D3
:102D60006464636362616160605F5F5E5E5D5D5C61
:102D70005C5B5B5A5A5959585857575656555555D2
:102D80005454535352525251515050504F4F4F4E32
:102D90004E4D4D4D4C4C4C4B4B4B4A4A4A49494980
:102DA00048484847474747464646454545444444C2
:102DB0004443434343424242424141419C46002BEB
:102DC00030D477002BD04FEA37071CB503B44FF04F
:102DD00010004FF01001BAF1000F06D0BCF1000F47
:102DE000DCBF40F0080040F008014FF000000FBCCD
:102DF000BDE810400BF1010BBBF1010F08BF5FEA0A
:102E0000170722BF12F1010211F101014FF0004139
:102E100043F1000300F0004043EA00007047F9D39B
:102E20005708D0E746EA06464FEA164613F1400F28
:102E30001FDD13F1200FDFBF16430A4600212033A8
:102E40005B42BED0C3F1200746EA06464FEA16466B
:102E500002FA07F746EA070622FA03F2C3F120074F
:102E600001FA07F742EA070221FA03F14FF00003E3
:102E7000A7E746EA020646EA06464FEA164646EA4B
:102E80000106BCBF46EA0646360C4FF000034FF081
:102E900000024FF0000194E72DE9804C70B49A468F
:102EA000934691E8380007C831EA400C48BF34EA3D
:102EB000430C03D5FFF7E6FDFFF780FFF0BCBDE84C
:102EC000008C2DE9804C70B49A46934691E8380006
:102ED00007C810F0804F08BF13F0804F03D100F0F7
:102EE00005F8FFF76BFFF0BCBDE8008C20F07F47D2
:102EF00023F07F4C80EA030000F0004007EB0C0356
:102F0000A3F57C53A3F1FE0392F0000F00F0B38011
:102F100095F0000F00F077802DE901494FEA11404C
:102F200021EA00484FEA144624EA064700FB06FC63
:102F300008FB06F607FB08F818EB06484CEB164CA6
:102F400000FB07F718EB07484CEB17404FEA124B12
:102F500022EA0B4E4FEA154625EA06470BFB06FC14
:102F60000EFB06F607FB0EFE1EEB064E4CEB164C58
:102F70000BFB07F71EEB074E4CEB174B18EB0B0840
:102F800040F1000018EB0E0B58EB000840F1000078
:102F90008F1A4FF000014FF000063CBFC943661B7B
:102FA00014BFB5EB040C00213CBFC943F61B4FEA2C
:102FB000174427EA04454FEA1C472CEA074C04FB58
:102FC000076205FB07F70CFB05F616EB074642EB1D
:102FD000174204FB0CFC16EB0C4642EB1C421BEBAD
:102FE000060658EB020241414EEA8E0E46EA9E0664
:102FF00001D5BDE80189B619524141EB0101A3F1A8
:103000000103BDE801894FEA144524EA05464FEA69
:10301000114721EA074C05FB07F406FB07F70CFBF9
:1030200006F111EB074144EB174405FB0CFC11EBD7
:103030000C4144EB1C444FEA124722EA074C05FBC3
:1030400007F206FB07F70CFB06F616EB074642EB0A
:10305000174205FB0CFC16EB0C4642EB1C456A18AC
:1030600054F1000148BF7047B619524141EB0101CC
:10307000A3F10103704795F0000F37D04FEA1142DA
:1030800021EA02464FEA144724EA074C02FB07F103
:1030900006FB07F70CFB06F414EB074441EB174162
:1030A00002FB0CFC14EB0C4441EB1C414FEA1547AE
:1030B00025EA074C02FB07F506FB07F70CFB06F6B3
:1030C00016EB074645EB174502FB0CFC16EB0C46CE
:1030D00045EB1C42121951F1000148BF7047B61967
:1030E000524141EB0101A3F1010370474FEA14453E
:1030F00024EA05464FEA114721EA074C05FB07F190
:1031000006FB07F70CFB06F212EB074241EB1741F7
:1031100005FB0CFC12EB0C4251EB1C414FF000067E
:1031200048BF7047921841EB0101A3F101037047BA
:1031300003B401984100009850EAC12018BF042050
:103140004A0D18BF40F0010040F2FF72B2EB515F30
:1031500008BF40F00200012808BF052002B07047F8
:1031600030380A2801D20120704700207047000043
:1031700010B500290AD00878002807D005487844FF
:10318000FDF72AFE002801D0002010BD0248784437
:1031900010BD0000460200003E0200000808A0F535
:1031A00000114FEA3101704743004FEAD30C4FEA58
:1031B0003C0C43401FBF40070CF1605113F0FE4F21
:1031C00070471CF0006F03D10CF0004100207047E5
:1031D0000CF0004343EA507040EACC0010B500F018
:1031E0000EF800BF000000924FEA0001FFF7D6BFC3
:1031F0004FF00041A1F500214FF0000070470EF1A3
:10320000020E2EF0030E5EF8044B244204D44FEA63
:103210004102B2F17F4F11D84FEA4003B3F17F4F23
:103220000CD80ED14FEAD07C0CEB4C0C0CF1020CFC
:10323000B2F17F4F08BF4CEBD17C04E04FF0080C9B
:1032400001E04FEAD17C0CEB4C0324FA03F404F0C8
:103250000704B4F1040C06D20EEB840CBDE8104058
:103260004CF0010C6047DFE80CF0070802024FF059
:103270000040A0F5800010BD0846420018BFD2F102
:10328000807288BF00F0004010BDF1EE100A4FF6CA
:10329000FF71C0F2C03120EA010040F04070E1EE61
:1032A000100A7047FDF716BB02400000000000A0A6
:1032B0000000000005400000000000C80000000001
:1032C0000C4000000000409C00000000194000007D
:1032D0000020BCBE0000000034400000BFC91B8EAF
:1032E00000000004B5400000504BCFD06607E2CF8D
:1032F000010000006C4100003E8251AADFEEA734BD
:1033000001000000D9420000DCB5A0E23A301F976E
:10331000FFFFFFFFB4450000FD25A0C8E9A3C14F92
:10332000FFFFFFFFFF3F00000000008000000000E3
:10333000FF3F00000000008000000000200040006F
:1033400080000000000000000000010203040607E6
:1033500008090000000001020304543D252E3266D6
:103360002044543D252E3266204156473D252E32BD
:1033700066205641523D252E3266204350553D254C
:103380002E3166204556543D252E3166205354413A
:1033900054453D2575204641554C54533D256C758B
:1033A0000D0A0000E03300080000002010000000BB
:1033B00028020008F0330008100000200808000070
:1033C000480200081C00000043000000F8FFFFFF57
:1033D0000C0000000E0000000F0000002E00000096
:1033E00001000000100000000024F4000000C03FB5
:04000005080001C529
:00000001FF
